S018000061697220636F6E646974696F6E696E672E73726563AB
S11300000C942A000C94C6040C94ED040C9414056E
S11300100C9447000C9464060C9447000C9447001D
S11300200C9447000C9447000C9447000C94470030
S11300300C9447000C9447000C9447000C94470020
S11300400C9447000C9447000C9447000C94470010
S11300500C94470011241FBECFE5D8E0DEBFCDBF0E
S113006011E0A0E6B0E0E6E8F2E102C005900D92EE
S1130070A630B107D9F721E0A6E0B1E001C01D9296
S1130080A831B207E1F70E94EA030C9441090C94E9
S1130090000080911501909116010196909316012C
S11300A0809315010895CF93DF93EA010E944203E0
S11300B0CE010E942C03DF91CF910895CF93C42FDA
S11300C00E9442038C2F0E947D03CF910895CF9309
S11300D0DF93EA010E944203CE010E948103DF9173
S11300E0CF9108954CE76091170181E00E945E0072
S11300F0809117018F5F80931701409114014F5F26
S11301004093140150E067E080E00E946700809112
S11301101701813118F080E18093170108956091EF
S113012017016150609317018091140181508093ED
S1130130140140E281E00E945E004091140150E00D
S113014067E080E00E94670008950F931F93CF93A8
S113015081E00E94790347E750E060E080E00E947C
S1130160530060E271EA87E090E00E94620581E05A
S11301700E94790340E850E060E080E00E94530070
S11301804091140150E067E080E00E94670047E876
S113019050E06AE080E00E9453000BC081E00E94BE
S11301A042038CE70E947D03809117018F5F809347
S11301B0170160911701262F30E08091140190E01F
S11301C042972817390754F360E070E88BE395E40D
S11301D00E940F068C0181E090E00E94980528C0DF
S11301E00E943502C82F813389F480911701803130
S11301F068F410921601109215010E94720060E4D6
S11302007DE083E090E00E94620512C0C23381F475
S113021080911701882361F0109216011092150144
S11302200E948F0060E47DE083E090E00E9462051C
S1130230C33339F08091150190911601801791070D
S113024078F280E090E00E94980514BC10921601A8
S1130250109215014EE850E060E080E00E945300E7
S11302604091140150E06EE080E00E94670060E479
S113027072E48FE090E00E94620581E00E947903BD
S1130280CF911F910F9108951092170184E18093EB
S1130290140110921601109215010E943B050E9450
S11302A075038FB780688FBF89B7806489BF0E9448
S11302B0900589E490E00E945F064EE950E064E016
S11302C080E00E94530060E080E690E00E945A03C0
S11302D060E472E48FE090E00E94620581E00E9495
S11302E0790346EA50E060E080E00E94530060E455
S11302F072E48FE090E00E9462050E94A50080E015
S11303000895CF92DF92EF92FF92CF930E94EF0372
S11303100E94B70720E030E040E951E40E948C06D7
S11303206B017C0146EB50E060E080E00E945300EA
S113033020E030E040E251E4C701B6010E949D088C
S11303400E948107CB016AE070E00E940A090597C8
S11303503CF0C701B6010E94F8066B017C0106C09F
S1130360C701B6010E94F4076B017C01C701B60105
S11303700E948807AB016DE080E00E94670043ECB7
S113038050E060E081E00E9453004091140150E08D
S11303906DE081E00E946700C701B6010E948107F9
S11303A08091140190E08617970734F440E06FE0E1
S11303B080E00E945E0008C0861797072CF040E298
S11303C06FE080E00E945E000E943502C82F80ED3D
S11303D08C0F8A3028F0CA3219F0C33209F03FC0BA
S11303E081E00E947903C43389F440ED50E060E079
S11303F080E00E9453001092170160E472E48FE0E1
S113040090E00E9462050E94A50026C0C53391F4C5
S11304104FED50E060E080E00E94530084E180935F
S113042014011092170160E472E48FE090E00E94DE
S1130430620512C040EF50E060E080E00E9453008B
S11304404EEF50E060E081E00E94530060E472E40B
S11304508FE090E00E94620581E00E947903CF91D1
S1130460FF90EF90DF90CF900895CF92DF92EF92BC
S1130470FF920F931F93CF93DF931F92CDB7DEB7F5
S113048000E03BC0C02ED12CF601EF58FF4F40E0F6
S1130490608182E00E94090410E024C0E12EF12C66
S11304A0F701EC58FF4FAE014F5F5F4F608182E070
S11304B00E9488048981811114C0F601EF58FF4F0E
S11304C041E0608182E00E940904C601880F991FFF
S11304D08C0D9D1D88599F4FFC01EE0DFF1D8081E1
S11304E00FC01F5F1330D0F2F601EF58FF4F41E009
S11304F0608182E00E9409040F5F033018F280E0FB
S11305000F90DF91CF911F910F91FF90EF90DF90AB
S1130510CF900895CF93C82F8BB38F709C2F907F6B
S1130520892B8BBB8BB38D7F8BBB8BB38B7F8BBBAF
S11305308BB388608BBB61E070E080E090E00E9448
S113054062058BB3877F8BBB62E070E080E090E054
S11305500E9462052BB330E1C39FC0011124922F86
S11305609F70892B8BBB8BB388608BBB61E070E081
S113057080E090E00E9462058BB3877F8BBB60EDC7
S113058077E080E090E00E94620580E0CF910895DA
S11305908AB382608ABB8AB384608ABB8AB3886068
S11305A08ABB8AB3806F8ABB60E27EE480E090E01D
S11305B00E94620582E00E948A0288E20E948A0206
S11305C08CE00E948A0286E00E948A0281E00E94F6
S11305D08A0280E80E948A0280E00895CF93C82F9F
S11305E08BB38F709C2F907F892B8BBB8BB38260D6
S11305F08BBB8BB38B7F8BBB8BB388608BBB61E076
S113060070E080E090E00E9462058BB3877F8BBB33
S113061068EC70E080E090E00E9462052BB330E16A
S1130620C39FC0011124922F9F70892B8BBB8BB366
S113063088608BBB61E070E080E090E00E9462051E
S11306408BB3877F8BBB68EC70E080E090E00E9406
S1130650620580E0CF9108950F931F93CF93DF93AA
S11306608C01C0E0D0E003C00E94EE022196F801A4
S1130670EC0FFD1F80818111F7CFDF91CF911F9186
S11306800F910895CF93DF9300D0CDB7DEB790E8F4
S1130690998390EC9A83E1E0F0E0EC0FFD1FE80F02
S11306A0F11D8081860F0E948A020F900F90DF91C6
S11306B0CF9108950F931F93CF938C01862F90E0D1
S11306C00896880F880F880F0E948A02C0E007C02E
S11306D0F801EC0FF11D80810E94EE02CF5FC8305B
S11306E0B8F3CF911F910F9108950E94C80280E042
S11306F008950E948A0280E008950E94EE0280E03C
S11307000895EF92FF921F93CF93DF93CDB7DEB797
S113071064970FB6F894DEBF0FBECDBF7C01892B62
S113072019F480E30E947D0310E032C0412F50E0B1
S11307309701ADECBCEC0E941E09969587959695A1
S11307408795969587959C01220F331F880F991FD3
S1130750880F991F880F991F820F931F9701281BD9
S1130760390BC901C096440F551FE1E0F0E0EC0FCE
S1130770FD1FE40FF51F9183808397010E941E09DA
S11307807C01F694E794F694E794F694E7941F5F5B
S1130790E114F10459F60FC0E12FF0E03197EE0FA8
S11307A0FF1F81E090E08C0F9D1FE80FF91F8081EF
S11307B00E947D0311501111EFCF80E064960FB6B3
S11307C0F894DEBF0FBECDBFDF91CF911F91FF9094
S11307D0EF9008950E9444010E948101FDCF86B1EB
S11307E0806486B9349BFECF64B175B180E090E03B
S11307F00E94B70720E030E040EA5BE30E949D08D6
S11308002BE237E846E95EE30E940F070E9488075F
S11308100895442319F04130E9F174C0813099F00E
S113082028F08230E9F0833041F16EC02BB381E0CF
S113083090E002C0880F991F6A95E2F780958223A1
S11308408BBB80E0089528B381E090E002C0880F5C
S1130850991F6A95E2F78095822388BB80E008950A
S113086025B381E090E002C0880F991F6A95E2F7F2
S11308708095822385BB80E0089522B381E090E0D7
S113088002C0880F991F6A95E2F78095822382BB84
S113089080E00895813091F028F08230D9F08330DF
S11308A029F134C02BB381E090E002C0880F991F76
S11308B06A95E2F7822B8BBB80E0089528B381E030
S11308C090E002C0880F991F6A95E2F7822B88BBDB
S11308D080E0089525B381E090E002C0880F991F5D
S11308E06A95E2F7822B85BB80E0089522B381E00C
S11308F090E002C0880F991F6A95E2F7822B82BBB1
S113090080E0089581E0089581E0089581E00895EC
S1130910813099F028F08230E9F0833041F134C01D
S113092089B390E002C0959587956A95E2F7817046
S113093089BBFA01808380E0089586B390E002C009
S1130940959587956A95E2F7817086BBFA01808355
S113095080E0089583B390E002C0959587956A95E9
S1130960E2F7817083BBFA01808380E0089580B34D
S113097090E002C0959587956A95E2F7817080BBF7
S1130980FA01808380E0089581E008951F920F9218
S11309900FB60F9211242F933F934F935F936F934E
S11309A07F938F939F93AF93BF93EF93FF93E091C4
S11309B00A01F0910B010995FF91EF91BF91AF915D
S11309C09F918F917F916F915F914F913F912F9163
S11309D00F900FBE0F901F9018951F920F920FB695
S11309E00F9211242F933F934F935F936F937F93B1
S11309F08F939F93AF93BF93EF93FF93E09108017D
S1130A00F09109010995FF91EF91BF91AF919F91E9
S1130A108F917F916F915F914F913F912F910F90A3
S1130A200FBE0F901F9018951F920F920FB60F9242
S1130A3011242F933F934F935F936F937F938F93DF
S1130A409F93AF93BF93EF93FF93E0910601F091CF
S1130A5007010995FF91EF91BF91AF919F918F91FC
S1130A607F916F915F914F913F912F910F900FBEA6
S1130A700F901F90189583B78F7783BF83B78F7BB1
S1130A8083BF83B7877F83BF83B78F7E83BF83B7DB
S1130A908F7D83BF80E0089583B7816083BF83B770
S1130AA08D7F83BF83B78B7F83BF80E0089583B737
S1130AB08E7F83BF83B78D7F83BF83B78B7F83BFD5
S1130AC080E00895BB27A92F982F872F80930C01CE
S1130AD090930D01A0930E01B0930F0112BE0E94DA
S1130AE04C0540E050E0BA010AC008B600FEFDCF54
S1130AF088B7816088BF4F5F5F4F6F4F7F4F809192
S1130B000C0190910D01A0910E01B0910F014817B5
S1130B1059076A077B0748F30E94570580E0089548
S1130B2085B58F7E85BD85B58F7D85BD80E00895B3
S1130B308B30910509F454C038F481309105F1F0FB
S1130B4098F0089729F160C08034910559F120F498
S1130B500C9709F44FC058C0811521E0920761F148
S1130B608115944099F150C085B58E7F85BD85B5BA
S1130B708D7F85BD85B58B7F85BD4FC085B5816073
S1130B8085BD85B58D7F85BD85B58B7F85BD45C00C
S1130B9085B58E7F85BD85B5826085BD85B58B7F26
S1130BA085BD3BC085B5816085BD85B5826085BD49
S1130BB085B58B7F85BD31C085B58E7F85BD85B5F7
S1130BC08D7F85BD85B5846085BD27C085B5816071
S1130BD085BD85B58D7F85BD85B5846085BD1DC00A
S1130BE085B5816085BD85B5826085BD85B58B7F02
S1130BF085BD13C085B5816085BD85B5826085BD21
S1130C0085B5846085BD09C085B58E7F85BD85B5F4
S1130C108D7F85BD85B58B7F85BD80E00895CF929E
S1130C20DF92EF92FF92CF93DF9300D0CDB7DEB780
S1130C301A8219822FE632E143E85AE30E949D08A2
S1130C406B017C012DEB37E346E859E30E940F0763
S1130C500E94F8060E9488077A8369832DEB37E3A4
S1130C6046E855E3C701B6010E940F076B017C01FA
S1130C7069817A8180E090E00E94B7079B01AC0112
S1130C80C701B6010E940F070E94F8069B01AC0140
S1130C9060E070E080E893E40E948B060E9488077D
S1130CA0709313016093120189819A810F900F90C0
S1130CB0DF91CF91FF90EF90DF90CF9008959093C4
S1130CC011018093100108951F920F920FB60F9295
S1130CD011242F933F934F935F936F937F938F933D
S1130CE09F93AF93BF93EF93FF93E0911001F09123
S1130CF011010995FF91EF91BF91AF919F918F9150
S1130D007F916F915F914F913F912F910F900FBE03
S1130D100F901F9018955058BB27AA270E94A3062E
S1130D200C944B080E943D0838F00E94440820F0BF
S1130D3039F49F3F19F426F40C943A080EF4E09524
S1130D40E7FB0C940B08E92F0E945C0858F3BA17D0
S1130D50620773078407950720F079F4A6F50C94CD
S1130D6096080EF4E0950B2EBA2FA02D0B01B901B5
S1130D7090010C01CA01A0011124FF27591B99F00D
S1130D80593F50F4503E68F11A16F040A22F232F19
S1130D90342F4427585FF3CF469537952795A79569
S1130DA0F0405395C9F77EF41F16BA0B620B730B10
S1130DB0840BBAF09150A1F0FF0FBB1F661F771F81
S1130DC0881FC2F70EC0BA0F621F731F841F48F436
S1130DD0879577956795B795F7959E3F08F0B0CFBF
S1130DE09395880F08F09927EE0F979587950895A6
S1130DF00E947E0890F09F3748F4911116F40C94E9
S1130E00970860E070E080E89FE3089526F01B16E1
S1130E10611D711D811D0C9411080C942C080E94F5
S1130E2023070C944B080E94440858F00E943D0884
S1130E3040F029F45F3F29F00C940B0851110C94F5
S1130E4097080C943A080E945C0868F39923B1F35C
S1130E50552391F3951B550BBB27AA2762177307DC
S1130E60840738F09F5F5F4F220F331F441FAA1F70
S1130E70A9F335D00E2E3AF0E0E832D0915050402C
S1130E80E695001CCAF72BD0FE2F29D0660F771FDA
S1130E90881FBB1F261737074807AB07B0E809F0C0
S1130EA0BB0B802DBF01FF2793585F4F3AF09E3F45
S1130EB0510578F00C940B080C9497085F3FE4F309
S1130EC0983ED4F3869577956795B795F7959F5F88
S1130ED0C9F7880F911D9695879597F90895E1E0D4
S1130EE0660F771F881FBB1F621773078407BA0733
S1130EF020F0621B730B840BBA0BEE1F88F7E0958E
S1130F0008950E9488076894B1110C949708089575
S1130F100E94640888F09F5798F0B92F9927B75119
S1130F20B0F0E1F0660F771F881F991F1AF0BA9589
S1130F30C9F714C0B13091F00E949608B1E0089549
S1130F400C949608672F782F8827B85F39F0B93F3B
S1130F50CCF3869577956795B395D9F73EF490953C
S1130F608095709561957F4F8F4F9F4F0895E894BA
S1130F7009C097FB3EF490958095709561957F4FDD
S1130F808F4F9F4F9923A9F0F92F96E9BB2793958B
S1130F90F695879577956795B795F111F8CFFAF49B
S1130FA0BB0F11F460FF1BC06F5F7F4F8F4F9F4FCC
S1130FB016C0882311F096E911C0772321F09EE82A
S1130FC0872F762F05C0662371F096E8862F70E090
S1130FD060E02AF09A95660F771F881FDAF7880F6A
S1130FE09695879597F908950E947E0890F09F370B
S1130FF048F4911116F00C94970860E070E080E8D2
S11310009FEB089526F41B16611D711D811D0C9420
S113101011080C942C0897F99F6780E870E060E051
S11310200895882371F4772321F09850872B762F25
S113103007C0662311F499270DC09051862B70E0E8
S113104060E02AF09A95660F771F881FDAF7880FF9
S11310509695879597F908959F3F31F0915020F424
S1131060879577956795B795880F911D9695879580
S113107097F908959FEF80EC089500240A941616BA
S1131080170618060906089500240A941216130672
S1131090140605060895092E0394000C11F4882300
S11310A052F0BB0F40F4BF2B11F460FF04C06F5F1C
S11310B07F4F8F4F9F4F089557FD9058440F551FF2
S11310C059F05F3F71F04795880F97FB991F61F0C6
S11310D09F3F79F087950895121613061406551F3D
S11310E0F2CF4695F1DF08C0161617061806991FA9
S11310F0F1CF869571056105089408950E946408EE
S1131100A0F0BEE7B91788F4BB279F3860F4161621
S1131110B11D672F782F8827985FF7CF869577952D
S11311206795B11D93959639C8F30895E894BB2744
S113113066277727CB0197F908950E94B0080C948D
S11311404B080E943D0838F00E94440820F0952383
S113115011F00C940B080C943A0811240C94970881
S11311600E945C0870F3959FC1F3950F50E0551FE2
S1131170629FF001729FBB27F00DB11D639FAA27E8
S1131180F00DB11DAA1F649F6627B00DA11D661F37
S1131190829F2227B00DA11D621F739FB00DA11D58
S11311A0621F839FA00D611D221F749F3327A00D12
S11311B0611D231F849F600D211D822F762F6A2FAE
S11311C011249F5750409AF0F1F088234AF0EE0F13
S11311D0FF1FBB1F661F771F881F91505040A9F740
S11311E09E3F510580F00C940B080C9497085F3FC8
S11311F0E4F3983ED4F3869577956795B795F7957C
S1131200E7959F5FC1F7FE2B880F911D96958795F3
S113121097F9089597FB072E16F4009407D077FDED
S113122009D00E942D0907FC05D03EF490958195C4
S11312309F4F0895709561957F4F0895A29FB001C7
S1131240B39FC001A39F700D811D1124911DB29FF6
S1131250700D811D1124911D0895AA1BBB1B51E122
S113126007C0AA1FBB1FA617B70710F0A61BB70B12
S1131270881F991F5A95A9F780959095BC01CD01B7
S10912800895F894FFCF6D
S1131286040E0E0E1F00040031323334353637385F
S1131296390203040506075365742054656D70000E
S11312A64D696E3D3138004D61783D3335005465E6
S11312B66D702073657420746F203E20200057657E
S11312C66C636F6D650044656661756C7420546566
S11312D66D702032300043757272656E742020542E
S11312E6203A0052657175697265642054203A008B
S11312F620526561646A757374206D6F6465005469
S1131306656D7020726573657420746F20323000C9
S11313164F7065726174696F6E206E6F7400616CD4
S10913266C6F77656400A2
S9030000FC
