:100000000C942A000C9447000C9447000C94470071
:100010000C9447000C9447000C9447000C94470044
:100020000C9447000C9447000C9447000C94470034
:100030000C9447000C9447000C9447000C94470024
:100040000C9447000C9447000C9447000C94470014
:100050000C94470011241FBECFE5D8E0DEBFCDBF12
:1000600010E0A0E6B0E0E2E0F1E102C005900D9200
:10007000A43EB107D9F720E0A4EEB0E001C01D9284
:10008000A13FB207E1F70E949C040C947F080C94F6
:10009000000082E08093F0000E94A1040E943F06CD
:1000A0000E94430362E370E080E090E00E946606F5
:1000B0000E94240260E081E690E00E94F60361E085
:1000C00084EE90E00E94F6030E9412020E941E023B
:1000D00081E00E94FA0264E170E080E090E00E941A
:1000E000660661E080E00E94DE0389E690E00E94FF
:1000F000CB0368EE73E080E090E00E94660681E04A
:100100000E94FA0264E170E080E090E00E946606DE
:1001100060E080E00E94DE0387E790E00E94CB036E
:1001200060ED77E080E090E00E94660681E00E944A
:10013000FA0264E170E080E090E00E94660660E010
:1001400080E00E94DE0388E890E00E94CB0360ED2F
:1001500077E080E090E00E94660681E00E94FA026B
:1001600064E170E080E090E00E94660660E080E07C
:100170000E94DE0388E990E00E94CB0367E080E004
:100180000E94DE036091600070E080E090E00E94D9
:1001900011046AE080E00E94DE038FE990E00E9493
:1001A000CB0360E081E00E94DE0386EA90E00E94DB
:1001B000CB0308951F93CF93DF931F92CDB7DEB784
:1001C0001982CE0101960E946202811126C18981A5
:1001D000813049F5809160008F5F809360008432A8
:1001E00020F083E28093600018C167E080E00E9405
:1001F000DE036091600070E080E090E00E941104F6
:100200006091F00081E0860F8093F00081E00E9411
:10021000DE038CE70E94840368EC70E080E090E0ED
:100220000E946606FAC0823039F5809160008150E4
:1002300080936000823118F482E18093600067E06F
:1002400080E00E94DE036091600070E080E090E05A
:100250000E9411046091F00061506093F00081E011
:100260000E94DE0381E00E94840368EC70E080E07D
:1002700090E00E946606D1C0833009F0CEC019829A
:1002800081E00E94FA0264E170E080E090E00E9468
:10029000660648C00E94BF0470E080E090E00E94C3
:1002A00045072DEC3CEC4CE45EE30E94D1070E9434
:1002B0001407162F60E080E00E94DE0389EA90E0D8
:1002C0000E94CB036091600070E080E090E00E94AB
:1002D000110460E081E00E94DE0387EB90E00E9461
:1002E000CB03612F70E080E090E00E9411048091C8
:1002F0006000811750F46FE080E00E94DE0380E030
:100300000E9484030E94180209C06FE080E00E94EE
:10031000DE0381E00E9484030E941E02CE0101964A
:100320000E94620289819CEF980F923008F0B2CF50
:10033000843009F052C06FE080E00E94DE0381E06B
:100340000E9484030E941E0281E00E94FA0264E17E
:1003500070E080E090E00E94660660E080E00E942D
:10036000DE0386EC90E00E94CB0360ED77E080E056
:1003700090E00E94660681E00E94FA0264E170E06B
:1003800080E090E00E94660660E080E00E94DE036C
:1003900088E990E00E94CB0367E080E00E94DE03E2
:1003A0006091600070E080E090E00E9411046AE0DB
:1003B00080E00E94DE038FE990E00E94CB0360E0C2
:1003C00081E00E94DE031091F00004C08CE70E94DF
:1003D000840311501111FACF20C08530F1F484E16B
:1003E0008093600081E00E94FA0264E170E080E0A6
:1003F00090E00E94660660E080E00E94DE0384EDEB
:1004000090E00E94CB0360ED77E080E090E00E94F6
:1004100066060E9449000E94DA000F90DF91CF919A
:100420001F91089541E063E080E00E94C9040895AF
:1004300041E063E080E00E944805089540E063E009
:1004400080E00E944805089541E060E082E00E945B
:10045000C90441E061E082E00E94C90441E062E039
:1004600082E00E94C90440E065E081E00E94C90486
:1004700040E066E081E00E94C90440E067E081E07E
:100480000E94C90441E060E082E00E94480541E02A
:1004900061E082E00E94480541E062E082E00E9463
:1004A000480541E065E081E00E94480541E066E0E2
:1004B00081E00E94480541E067E081E00E94480534
:1004C00080E00895DF92EF92FF920F931F93CF93F6
:1004D000DF93CDB7DEB727970FB6F894DEBF0FBE18
:1004E000CDBF7C0119821A821B821C8281E08A8323
:1004F00082E08B8385E08D8386E08E8387E08F8327
:1005000000E066C0E1E0F0E0EC0FFD1FE00FF11D40
:10051000D08040E06D2D82E00E94480510E050C080
:10052000E5E0F0E0EC0FFD1FE10FF11DA701608198
:1005300081E00E94C705F7018081811140C001114F
:1005400011C0111103C081E0808333C0113021F448
:1005500082E0F70180832DC0123059F583E0F70166
:10056000808327C0013091F4111104C084E0F701A9
:1005700080831FC0113021F485E0F701808319C00A
:100580001230B9F486E0F701808313C0023089F499
:10059000111104C087E0F70180830BC0113021F4F2
:1005A00088E0F701808305C0123019F489E0F70173
:1005B00080836D2D82E00E94050680E00DC01F5FE4
:1005C000133008F4ADCF6D2D82E00E9405060F5F59
:1005D000043008F497CF81E027960FB6F894DEBF79
:1005E0000FBECDBFDF91CF911F910F91FF90EF9084
:1005F000DF900895CF93C82F0E943F0640E061E04E
:1006000081E00E94480540E062E081E00E944805E8
:1006100040E063E081E00E9448058BB39C2F907F0F
:100620008F70892B8BBB41E063E081E00E9448051D
:1006300061E070E080E090E00E94660640E063E0E8
:1006400081E00E94480520E1C29FC00111249BB3B4
:100650009F70892B8BBB41E063E081E00E944805DD
:1006600061E070E080E090E00E94660640E063E0B8
:1006700081E00E94480565E070E080E090E00E9423
:100680006606CF9108950E943F0641E061E081E057
:100690000E94C90441E062E081E00E94C90441E097
:1006A00063E081E00E94C90441E064E080E00E94D0
:1006B000C90441E065E080E00E94C90441E066E0D1
:1006C00080E00E94C90441E067E080E00E94C90424
:1006D00064E170E080E090E00E94660683E30E949F
:1006E000FA0282E30E94FA0288E20E94FA028CE097
:1006F0000E94FA0286E00E94FA0282E00E94FA0258
:1007000081E00E94FA020895CF93C82F41E061E092
:1007100081E00E94480540E062E081E00E944805D7
:1007200040E063E081E00E9448058BB39C2F907FFE
:100730008F70892B8BBB41E063E081E00E9448050C
:1007400061E070E080E090E00E94660640E063E0D7
:1007500081E00E94480520E1C29FC00111249BB3A3
:100760009F70892B8BBB41E063E081E00E944805CC
:1007700061E070E080E090E00E94660640E063E0A7
:1007800081E00E94480565E070E080E090E00E9412
:100790006606CF9108950F931F93CF938C01C0E00D
:1007A00003C00E948403CF5FF801EC0FF11D80812C
:1007B0008111F7CFCF911F910F910895CF93DF93C0
:1007C00000D0CDB7DEB790E8998390EC9A83E1E052
:1007D000F0E0EC0FFD1FE80FF11D8081860F0E94F5
:1007E000FA020F900F90DF91CF9108950F931F930E
:1007F000CF938C01862F90E00896880F880F880F82
:100800000E94FA02C0E007C0F801EC0FF11D8081E0
:100810000E948403CF5FC830B8F3CF911F910F912E
:1008200008951F93CF93DF93CDB7DEB72A970FB606
:10083000F894DEBF0FBECDBF9923DCF5909580956F
:10084000709561957F4F8F4F9F4F10E013C02AE046
:1008500030E040E050E00E943E08E1E0F0E0EC0FC4
:10086000FD1FE10FF11D605D6083622F732F842FE8
:10087000952F1F5F161617061806190644F3E1E0B8
:10088000F0E0EC0FFD1FE10FF11D8DE280831F5F93
:100890000DC0E12FF0E0319781E090E08C0F9D1FBB
:1008A000E80FF91F80810E94840311501111F1CFCC
:1008B00039C0611571058105910521F480E30E941D
:1008C000840330C01616170618061906ACF02AC0A5
:1008D0002AE030E040E050E00E943E08E1E0F0E035
:1008E000EC0FFD1FE10FF11D605D6083622F732F20
:1008F000842F952F1F5F01C010E0161617061806EB
:10090000190634F30DC0E12FF0E0319781E090E05B
:100910008C0F9D1FE80FF91F80810E9484031150E6
:100920001111F1CF2A960FB6F894DEBF0FBECDBFDE
:10093000DF91CF911F9108950E9449000E94DA0033
:10094000FDCF87B1806487B987B18F7787B987B1C9
:10095000816087B940E061E080E00E94C90486B10F
:10096000826086B987B18F7D87B986B1806286B98A
:1009700086B1877F86B986B1806886B9089586B1C9
:10098000806486B9349BFECF64B175B180E090E09D
:100990000895442319F04130E9F174C0813099F091
:1009A00028F08230E9F0833041F16EC02AB381E053
:1009B00090E002C0880F991F6A95E2F78095822324
:1009C0008ABB80E0089527B381E090E002C0880FE1
:1009D000991F6A95E2F78095822387BB80E008958E
:1009E00024B381E090E002C0880F991F6A95E2F776
:1009F0008095822384BB80E0089521B381E090E05C
:100A000002C0880F991F6A95E2F78095822381BB07
:100A100080E00895813091F028F08230D9F0833061
:100A200029F134C02AB381E090E002C0880F991FF9
:100A30006A95E2F7822B8ABB80E0089527B381E0B4
:100A400090E002C0880F991F6A95E2F7822B87BB5E
:100A500080E0089524B381E090E002C0880F991FE0
:100A60006A95E2F7822B84BB80E0089521B381E090
:100A700090E002C0880F991F6A95E2F7822B81BB34
:100A800080E0089581E0089581E0089581E008956F
:100A9000442319F04130E9F174C0813099F028F015
:100AA0008230E9F0833041F16EC02BB381E090E0F9
:100AB00002C0880F991F6A95E2F7809582238BBB4D
:100AC00080E0089528B381E090E002C0880F991F6C
:100AD0006A95E2F78095822388BB80E0089525B36C
:100AE00081E090E002C0880F991F6A95E2F7809537
:100AF000822385BB80E0089522B381E090E002C0AC
:100B0000880F991F6A95E2F78095822382BB80E067
:100B10000895813091F028F08230D9F0833029F1A6
:100B200034C02BB381E090E002C0880F991F6A9512
:100B3000E2F7822B8BBB80E0089528B381E090E040
:100B400002C0880F991F6A95E2F7822B88BB80E06C
:100B5000089525B381E090E002C0880F991F6A953F
:100B6000E2F7822B85BB80E0089522B381E090E01C
:100B700002C0880F991F6A95E2F7822B82BB80E042
:100B8000089581E0089581E0089581E0089581301D
:100B900099F028F08230E9F0833041F134C089B314
:100BA00090E002C0959587956A95E2F7817089BBC0
:100BB000FA01808380E0089586B390E002C09595A5
:100BC00087956A95E2F7817086BBFA01808380E0A1
:100BD000089583B390E002C0959587956A95E2F7F2
:100BE000817083BBFA01808380E0089580B390E038
:100BF00002C0959587956A95E2F7817080BBFA01EE
:100C0000808380E0089581E00895813091F028F09C
:100C10008230D9F0833029F130C02BB381E090E0ED
:100C200002C0880F991F6A95E2F782278BBB80E08C
:100C3000089528B381E090E002C0880F991F6A955B
:100C4000E2F7822788BB80E0089525B381E090E039
:100C500002C0880F991F6A95E2F7822785BB80E062
:100C6000089522B381E090E002C0880F991F6A9531
:100C7000E2F7822782BB80E0089581E0089583B780
:100C80008F7783BF83B78F7B83BF83B7877F83BF14
:100C900083B78F7E83BF83B78F7D83BF80E0089546
:100CA00083B7816083BF83B78D7F83BF83B7846041
:100CB00083BF80E0089583B78E7F83BF83B78D7F26
:100CC00083BF83B78B7F83BF80E008950E94430773
:100CD0002FE632E143E851E40E94A2060E94140785
:100CE0006093EC007093ED008093EE009093EF0022
:100CF00012BE0E94500640E050E0BA010AC008B699
:100D000000FEFDCF88B7816088BF4F5F5F4F6F4F98
:100D10007F4F8091EC009091ED00A091EE00B0919A
:100D2000EF00481759076A077B0748F31092EC0059
:100D30001092ED001092EE001092EF000E945B0600
:100D400080E008950E94B6060C9497070E949007D1
:100D500058F00E94890740F029F45F3F29F00C9475
:100D6000800751110C94CB070C9486070E94A807AA
:100D700068F39923B1F3552391F3951B550BBB27CA
:100D8000AA2762177307840738F09F5F5F4F220F0F
:100D9000331F441FAA1FA9F335D00E2E3AF0E0E806
:100DA00032D091505040E695001CCAF72BD0FE2F50
:100DB00029D0660F771F881FBB1F261737074807E4
:100DC000AB07B0E809F0BB0B802DBF01FF2793589C
:100DD0005F4F3AF09E3F510578F00C9480070C94D9
:100DE000CB075F3FE4F3983ED4F3869577956795FC
:100DF000B795F7959F5FC9F7880F911D96958795D1
:100E000097F90895E1E0660F771F881FBB1F6217EF
:100E100073078407BA0720F0621B730B840BBA0BAD
:100E2000EE1F88F7E09508950E94B00788F09F575D
:100E300098F0B92F9927B751B0F0E1F0660F771FFE
:100E4000881F991F1AF0BA95C9F714C0B13091F0F4
:100E50000E94CA07B1E008950C94CA07672F782F43
:100E60008827B85F39F0B93FCCF3869577956795B9
:100E7000B395D9F73EF490958095709561957F4F25
:100E80008F4F9F4F0895E89409C097FB3EF49095CB
:100E90008095709561957F4F8F4F9F4F9923A9F053
:100EA000F92F96E9BB279395F695879577956795E2
:100EB000B795F111F8CFFAF4BB0F11F460FF1BC026
:100EC0006F5F7F4F8F4F9F4F16C0882311F096E9B9
:100ED00011C0772321F09EE8872F762F05C0662367
:100EE00071F096E8862F70E060E02AF09A95660F20
:100EF000771F881FDAF7880F9695879597F90895D9
:100F000097F99F6780E870E060E008959FEF80ECBC
:100F1000089500240A94161617061806090608955F
:100F200000240A9412161306140605060895092EC5
:100F30000394000C11F4882352F0BB0F40F4BF2B34
:100F400011F460FF04C06F5F7F4F8F4F9F4F089574
:100F500057FD9058440F551F59F05F3F71F047956A
:100F6000880F97FB991F61F09F3F79F0879508954F
:100F7000121613061406551FF2CF4695F1DF08C06E
:100F8000161617061806991FF1CF8695710561058B
:100F900008940895E894BB2766277727CB0197F933
:100FA00008950E94E4070C9497070E94890738F07F
:100FB0000E94900720F0952311F00C9480070C9468
:100FC000860711240C94CB070E94A80770F3959F05
:100FD000C1F3950F50E0551F629FF001729FBB2730
:100FE000F00DB11D639FAA27F00DB11DAA1F649FCC
:100FF0006627B00DA11D661F829F2227B00DA11D7F
:10100000621F739FB00DA11D621F839FA00D611D04
:10101000221F749F3327A00D611D231F849F600D25
:10102000211D822F762F6A2F11249F5750409AF04E
:10103000F1F088234AF0EE0FFF1FBB1F661F771FDA
:10104000881F91505040A9F79E3F510580F00C94A5
:1010500080070C94CB075F3FE4F3983ED4F386956A
:1010600077956795B795F795E7959F5FC1F7FE2B45
:10107000880F911D9695879597F90895052E97FBF2
:101080001EF400940E94550857FD07D00E945D0889
:1010900007FC03D04EF40C945508509540953095BC
:1010A00021953F4F4F4F5F4F0895909580957095D4
:1010B00061957F4F8F4F9F4F0895A1E21A2EAA1B73
:1010C000BB1BFD010DC0AA1FBB1FEE1FFF1FA217F8
:1010D000B307E407F50720F0A21BB30BE40BF50BF5
:1010E000661F771F881F991F1A9469F7609570957E
:1010F000809590959B01AC01BD01CF010895F894B6
:02110000FFCF1F
:1011020014040E0E0E1F00040020202057656C638D
:101112006F6D652020200044656661756C742074D3
:10112200656D70203D3230005345542054454D507A
:1011320045524154555245004D696E3A3138004D81
:1011420061783A3335007C7C004E656564656420C5
:1011520054656D70203A0043757272656E74205446
:10116200656D70203A00526561646A75737420740B
:10117200656D700053797374656D207265626F6F6F
:0411820074200000D5
:00000001FF
