:100000000C942A000C9447000C9447000C94470071
:100010000C9447000C9447000C9447000C94470044
:100020000C9447000C9447000C9447000C94470034
:100030000C9447000C9447000C9447000C94470024
:100040000C9447000C9447000C9447000C94470014
:100050000C94470011241FBECFE5D8E0DEBFCDBF12
:1000600010E0A0E6B0E0E2E2F8E002C005900D92F8
:10007000AA38B107D9F720E0AAE8B0E001C01D9284
:10008000AE38B207E1F70E947A010C940F040C9489
:1000900000000E947D020E94C70064E170E080E0E1
:1000A00090E00E94A402089560E080E00E94620156
:1000B00080E690E00E944F0161E081E00E946201D1
:1000C00081E790E00E944F0160ED77E080E090E0F2
:1000D0000E94A40281E00E947E0064E170E080E062
:1000E00090E00E94A40280E890E00E944F0160ED41
:1000F00077E080E090E00E94A4020895CF93C82F9B
:100100000E947D0240E061E081E00E94FE0140E04B
:1001100062E081E00E94FE0140E063E081E00E9435
:10012000FE018BB39C2F907F8F70892B8BBB41E09E
:1001300063E081E00E94FE0161E070E080E090E019
:100140000E94A40240E063E081E00E94FE0120E101
:10015000C29FC00111249BB39F70892B8BBB41E0D0
:1001600063E081E00E94FE0161E070E080E090E0E9
:100170000E94A40240E063E081E00E94FE0165E08D
:1001800070E080E090E00E94A402CF9108950E9468
:100190007D0241E061E081E00E947F0141E062E098
:1001A00081E00E947F0141E063E081E00E947F01E5
:1001B00041E064E080E00E947F0141E065E080E092
:1001C0000E947F0141E066E080E00E947F0141E003
:1001D00067E080E00E947F0164E670E080E090E0EC
:1001E0000E94A40283E30E947E0082E30E947E00BC
:1001F00088E20E947E008CE00E947E0086E00E94E1
:100200007E0082E00E947E0081E00E947E000895D0
:10021000CF93C82F41E061E081E00E94FE0140E001
:1002200062E081E00E94FE0140E063E081E00E9424
:10023000FE018BB39C2F907F8F70892B8BBB41E08D
:1002400063E081E00E94FE0161E070E080E090E008
:100250000E94A40240E063E081E00E94FE0120E1F0
:10026000C29FC00111249BB39F70892B8BBB41E0BF
:1002700063E081E00E94FE0161E070E080E090E0D8
:100280000E94A40240E063E081E00E94FE0165E07C
:1002900070E080E090E00E94A402CF9108950F9357
:1002A0001F93CF938C01C0E003C00E940801CF5F71
:1002B000F801EC0FF11D80818111F7CFCF911F91D3
:1002C0000F910895CF93DF9300D0CDB7DEB790E8BC
:1002D000998390EC9A83E1E0F0E0EC0FFD1FE80FCA
:1002E000F11D8081860F0E947E000F900F90DF919C
:1002F000CF9108950E9449000E945400FDCF4423ED
:1003000019F04130E9F174C0813099F028F0823061
:10031000E9F0833041F16EC02AB381E090E002C081
:10032000880F991F6A95E2F7809582238ABB80E047
:10033000089527B381E090E002C0880F991F6A9565
:10034000E2F78095822387BB80E0089524B381E0A3
:1003500090E002C0880F991F6A95E2F7809582238A
:1003600084BB80E0089521B381E090E002C0880F53
:10037000991F6A95E2F78095822381BB80E00895FA
:10038000813091F028F08230D9F0833029F134C0E7
:100390002AB381E090E002C0880F991F6A95E2F7C6
:1003A000822B8ABB80E0089527B381E090E002C0F1
:1003B000880F991F6A95E2F7822B87BB80E008952A
:1003C00024B381E090E002C0880F991F6A95E2F79C
:1003D000822B84BB80E0089521B381E090E002C0CD
:1003E000880F991F6A95E2F7822B81BB80E0089500
:1003F00081E0089581E0089581E00895442319F093
:100400004130E9F174C0813099F028F08230E9F090
:10041000833041F16EC02BB381E090E002C0880FC1
:10042000991F6A95E2F7809582238BBB80E008953F
:1004300028B381E090E002C0880F991F6A95E2F727
:100440008095822388BB80E0089525B381E090E009
:1004500002C0880F991F6A95E2F78095822385BBB9
:1004600080E0089522B381E090E002C0880F991FD8
:100470006A95E2F78095822382BB80E008958130FF
:1004800091F028F08230D9F0833029F134C02BB3B9
:1004900081E090E002C0880F991F6A95E2F7822BF5
:1004A0008BBB80E0089528B381E090E002C0880F04
:1004B000991F6A95E2F7822B88BB80E0089525B3E7
:1004C00081E090E002C0880F991F6A95E2F7822BC5
:1004D00085BB80E0089522B381E090E002C0880FE0
:1004E000991F6A95E2F7822B82BB80E0089581E034
:1004F000089581E0089581E0089583B78F7783BFE1
:1005000083B78F7B83BF83B7877F83BF83B78F7E9C
:1005100083BF83B78F7D83BF80E0089583B78160F9
:1005200083BF83B78D7F83BF83B7846083BF80E041
:10053000089583B78E7F83BF83B78D7F83BF83B7D3
:100540008B7F83BF80E008950E9481032FE632E114
:1005500043E851E40E94E0020E94520360938A0043
:1005600070938B0080938C0090938D0012BE0E943C
:100570008E0240E050E0BA010AC008B600FEFDCF8E
:1005800088B7816088BF4F5F5F4F6F4F7F4F80910B
:100590008A0090918B00A0918C00B0918D0048173B
:1005A00059076A077B0748F310928A0010928B0064
:1005B00010928C0010928D000E94990280E00895A4
:1005C0000E94F4020C94D5030E94CE0358F00E94BE
:1005D000C70340F029F45F3F29F00C94BE0351118A
:1005E0000C9409040C94C4030E94E60368F3992355
:1005F000B1F3552391F3951B550BBB27AA2762171F
:100600007307840738F09F5F5F4F220F331F441F2B
:10061000AA1FA9F335D00E2E3AF0E0E832D091505F
:100620005040E695001CCAF72BD0FE2F29D0660F4C
:10063000771F881FBB1F261737074807AB07B0E88F
:1006400009F0BB0B802DBF01FF2793585F4F3AF095
:100650009E3F510578F00C94BE030C9409045F3F53
:10066000E4F3983ED4F3869577956795B795F7951B
:100670009F5FC9F7880F911D9695879597F9089503
:10068000E1E0660F771F881FBB1F6217730784079F
:10069000BA0720F0621B730B840BBA0BEE1F88F7AE
:1006A000E09508950E94EE0388F09F5798F0B92FC7
:1006B0009927B751B0F0E1F0660F771F881F991F97
:1006C0001AF0BA95C9F714C0B13091F00E9408042D
:1006D000B1E008950C940804672F782F8827B85F3D
:1006E00039F0B93FCCF3869577956795B395D9F7EF
:1006F0003EF490958095709561957F4F8F4F9F4FF9
:100700000895E89409C097FB3EF490958095709504
:1007100061957F4F8F4F9F4F9923A9F0F92F96E94D
:10072000BB279395F695879577956795B795F111C2
:10073000F8CFFAF4BB0F11F460FF1BC06F5F7F4F5F
:100740008F4F9F4F16C0882311F096E911C0772371
:1007500021F09EE8872F762F05C0662371F096E87A
:10076000862F70E060E02AF09A95660F771F881F49
:10077000DAF7880F9695879597F9089597F99F6707
:1007800080E870E060E008959FEF80EC0895002419
:100790000A941616170618060906089500240A94E6
:1007A00012161306140605060895092E0394000C6C
:1007B00011F4882352F0BB0F40F4BF2B11F460FFFB
:1007C00004C06F5F7F4F8F4F9F4F089557FD905824
:1007D000440F551F59F05F3F71F04795880F97FB05
:1007E000991F61F09F3F79F08795089512161306BF
:1007F0001406551FF2CF4695F1DF08C016161706EE
:100800001806991FF1CF8695710561050894089522
:10081000E894BB2766277727CB0197F90895F894CA
:02082000FFCF08
:100822004D555354414641204D4F48414D4D45444D
:100832000048415741525920536C6F696D616E00F7
:0A08420057656C636F6D652021009F
:00000001FF
