:100000000C942A000C9447000C9447000C94470071
:100010000C9447000C9447000C9447000C94470044
:100020000C9447000C9447000C9447000C94470034
:100030000C9447000C9447000C9447000C94470024
:100040000C9447000C9447000C9447000C94470014
:100050000C94470011241FBECFE5D8E0DEBFCDBF12
:1000600010E0A0E6B0E0ECE6F0E102C005900D92F1
:10007000A03EB107D9F720E0A0EEB0E001C01D928C
:10008000AE3EB207E1F70E9451040C9434080C9480
:1000900000001092E1000E9456040E94F4050E94A4
:1000A000F80262E370E080E090E00E941B060E948C
:1000B000D90160E081E690E00E94AB0361E082EE4E
:1000C00090E00E94AB030E94CD010E94D30161E049
:1000D00080E00E94930389E690E00E94800368EE2E
:1000E00073E080E090E00E941B0681E00E94AF0276
:1000F00064E170E080E090E00E941B0660E080E038
:100100000E94930387E790E00E94800360ED77E010
:1001100080E090E00E941B0681E00E94AF0264E153
:1001200070E080E090E00E941B0660E080E00E94AA
:10013000930388E890E00E94800360ED77E080E020
:1001400090E00E941B0681E00E94AF0264E170E033
:1001500080E090E00E941B0608951F93CF93DF93E9
:100160001F92CDB7DEB71982CE0101960E94170209
:10017000182F60E080E00E94930388E990E00E94DD
:10018000800367E080E00E94930360916000062E88
:10019000000C770B880B990B0E94C6036AE080E085
:1001A0000E9493038FE990E00E9480031111F0C038
:1001B0008981813029F5809160008F5F8093600094
:1001C00067E080E00E94930360916000062E000CBF
:1001D000770B880B990B0E94C6036091E10081E0C8
:1001E000860F8093E10081E00E9493038CE70E94D8
:1001F000390368EC70E080E090E00E941B06C8C004
:10020000823039F58091E10081508093E100809146
:10021000600081508093600067E080E00E9493035B
:1002200060916000062E000C770B880B990B0E94E2
:10023000C6036091E1006F5F81E00E94930381E05B
:100240000E94390368EC70E080E090E00E941B0699
:100250009FC0833009F09CC0198281E00E94AF02E8
:1002600064E170E080E090E00E941B0633C00E94D1
:10027000740470E080E090E00E94FA062DEC3CEC03
:100280004CE45EE30E9486070E94C906162F60E0D8
:1002900080E00E94930386EA90E00E9480036091D0
:1002A0006000062E000C770B880B990B0E94C6038A
:1002B00060E081E00E94930383EB90E00E94800362
:1002C000612F70E080E090E00E94C603CE010196AD
:1002D0000E94170289819CEF980F923040F684307B
:1002E00081F581E08093E0000E94AF0264E170E05C
:1002F00080E090E00E941B0660E080E00E94930393
:1003000082EC90E00E94800360ED77E080E090E076
:100310000E941B0681E00E94AF0264E170E080E071
:1003200090E00E941B0660E081E00E949303109120
:10033000E10004C08CE70E94390311501111FACF7B
:1003400027C0853029F584E18093600081E00E9418
:10035000AF0264E170E080E090E00E941B0660E084
:1003600080E00E94930380ED90E00E94800360EDA6
:1003700077E080E090E00E941B060E94AD0081E0E3
:100380000E94AF0264E170E080E090E00E941B06F2
:100390000F90DF91CF911F91089541E063E080E0DD
:1003A0000E947E04089540E063E080E00E94FD0426
:1003B000089541E060E082E00E947E0441E061E057
:1003C00082E00E947E0441E062E082E00E947E04BE
:1003D00040E065E081E00E947E0440E066E081E06C
:1003E0000E947E0440E067E081E00E947E0441E0DC
:1003F00060E082E00E94FD0441E061E082E00E9452
:10040000FD0441E062E082E00E94FD0441E065E01D
:1004100081E00E94FD0441E066E081E00E94FD046D
:1004200041E067E081E00E94FD0480E00895DF92F2
:10043000EF92FF920F931F93CF93DF93CDB7DEB769
:1004400027970FB6F894DEBF0FBECDBF7C0119828F
:100450001A821B821C8281E08A8382E08B8385E082
:100460008D8386E08E8387E08F8300E066C0E1E0C5
:10047000F0E0EC0FFD1FE00FF11DD08040E06D2D8E
:1004800082E00E94FD0410E050C0E5E0F0E0EC0FD7
:10049000FD1FE10FF11DA701608181E00E947C0535
:1004A000F7018081811140C0011111C0111103C0F9
:1004B00081E0808333C0113021F482E0F701808332
:1004C0002DC0123059F583E0F701808327C0013039
:1004D00091F4111104C084E0F70180831FC0113032
:1004E00021F485E0F701808319C01230B9F486E069
:1004F000F701808313C0023089F4111104C087E032
:10050000F70180830BC0113021F488E0F70180836C
:1005100005C0123019F489E0F70180836D2D82E067
:100520000E94BA0580E00DC01F5F133008F4ADCF04
:100530006D2D82E00E94BA050F5F043008F497CF5A
:1005400081E027960FB6F894DEBF0FBECDBFDF91D6
:10055000CF911F910F91FF90EF90DF900895CF936F
:10056000C82F0E94F40540E061E081E00E94FD0494
:1005700040E062E081E00E94FD0440E063E081E051
:100580000E94FD048BB39C2F907F8F70892B8BBBB7
:1005900041E063E081E00E94FD0461E070E080E002
:1005A00090E00E941B0640E063E081E00E94FD04B1
:1005B00020E1C29FC00111249BB39F70892B8BBB8C
:1005C00041E063E081E00E94FD0461E070E080E0D2
:1005D00090E00E941B0640E063E081E00E94FD0481
:1005E00065E070E080E090E00E941B06CF910895E6
:1005F0000E94F40541E061E081E00E947E0441E058
:1006000062E081E00E947E0441E063E081E00E94BC
:100610007E0441E064E080E00E947E0441E065E009
:1006200080E00E947E0441E066E080E00E947E045B
:1006300041E067E080E00E947E0464E170E080E0D9
:1006400090E00E941B0683E30E94AF0282E30E94B7
:10065000AF0288E20E94AF028CE00E94AF0286E007
:100660000E94AF0282E00E94AF0281E00E94AF02CE
:100670000895CF93C82F41E061E081E00E94FD041E
:1006800040E062E081E00E94FD0440E063E081E040
:100690000E94FD048BB39C2F907F8F70892B8BBBA6
:1006A00041E063E081E00E94FD0461E070E080E0F1
:1006B00090E00E941B0640E063E081E00E94FD04A0
:1006C00020E1C29FC00111249BB39F70892B8BBB7B
:1006D00041E063E081E00E94FD0461E070E080E0C1
:1006E00090E00E941B0640E063E081E00E94FD0470
:1006F00065E070E080E090E00E941B06CF910895D5
:100700000F931F93CF938C01C0E003C00E94390365
:10071000CF5FF801EC0FF11D80818111F7CFCF91F0
:100720001F910F910895CF93DF9300D0CDB7DEB71F
:1007300090E8998390EC9A83E1E0F0E0EC0FFD1FE4
:10074000E80FF11D8081860F0E94AF020F900F907D
:10075000DF91CF9108950F931F93CF938C01862F34
:1007600090E00896880F880F880F0E94AF02C0E0C3
:1007700007C0F801EC0FF11D80810E943903CF5FA3
:10078000C830B8F3CF911F910F9108951F93CF9365
:10079000DF93CDB7DEB72A970FB6F894DEBF0FBE52
:1007A000CDBF9923DCF590958095709561957F4F2D
:1007B0008F4F9F4F10E013C02AE030E040E050E040
:1007C0000E94F307E1E0F0E0EC0FFD1FE10FF11DE7
:1007D000605D6083622F732F842F952F1F5F161625
:1007E00017061806190644F3E1E0F0E0EC0FFD1FD0
:1007F000E10FF11D8DE280831F5F0DC0E12FF0E05E
:10080000319781E090E08C0F9D1FE80FF91F8081E8
:100810000E94390311501111F1CF39C061157105D2
:100820008105910521F480E30E94390330C016163A
:10083000170618061906ACF02AC02AE030E040E09E
:1008400050E00E94F307E1E0F0E0EC0FFD1FE10F44
:10085000F11D605D6083622F732F842F952F1F5FC2
:1008600001C010E0161617061806190634F30DC05D
:10087000E12FF0E0319781E090E08C0F9D1FE80FB1
:10088000F91F80810E94390311501111F1CF2A966E
:100890000FB6F894DEBF0FBECDBFDF91CF911F9191
:1008A00008950E9449000E94AD00FDCF87B1806489
:1008B00087B987B18F7787B987B1816087B940E001
:1008C00061E080E00E947E0486B1826086B987B1D3
:1008D0008F7D87B986B1806286B986B1877F86B9F8
:1008E00086B1806886B9089586B1806486B9349BE4
:1008F000FECF64B175B180E090E00895442319F013
:100900004130E9F174C0813099F028F08230E9F08B
:10091000833041F16EC02AB381E090E002C0880FBD
:10092000991F6A95E2F7809582238ABB80E008953B
:1009300027B381E090E002C0880F991F6A95E2F723
:100940008095822387BB80E0089524B381E090E006
:1009500002C0880F991F6A95E2F78095822384BBB5
:1009600080E0089521B381E090E002C0880F991FD4
:100970006A95E2F78095822381BB80E008958130FB
:1009800091F028F08230D9F0833029F134C02AB3B5
:1009900081E090E002C0880F991F6A95E2F7822BF0
:1009A0008ABB80E0089527B381E090E002C0880F01
:1009B000991F6A95E2F7822B87BB80E0089524B3E4
:1009C00081E090E002C0880F991F6A95E2F7822BC0
:1009D00084BB80E0089521B381E090E002C0880FDD
:1009E000991F6A95E2F7822B81BB80E0089581E030
:1009F000089581E0089581E00895442319F041307D
:100A0000E9F174C0813099F028F08230E9F0833048
:100A100041F16EC02BB381E090E002C0880F991FB6
:100A20006A95E2F7809582238BBB80E0089528B316
:100A300081E090E002C0880F991F6A95E2F78095E7
:100A4000822388BB80E0089525B381E090E002C056
:100A5000880F991F6A95E2F78095822385BB80E015
:100A6000089522B381E090E002C0880F991F6A9533
:100A7000E2F78095822382BB80E00895813091F077
:100A800028F08230D9F0833029F134C02BB381E0D3
:100A900090E002C0880F991F6A95E2F7822B8BBB0A
:100AA00080E0089528B381E090E002C0880F991F8C
:100AB0006A95E2F7822B88BB80E0089525B381E038
:100AC00090E002C0880F991F6A95E2F7822B85BBE0
:100AD00080E0089522B381E090E002C0880F991F62
:100AE0006A95E2F7822B82BB80E0089581E0089549
:100AF00081E0089581E00895813099F028F08230F6
:100B0000E9F0833041F134C089B390E002C095959B
:100B100087956A95E2F7817089BBFA01808380E04E
:100B2000089586B390E002C0959587956A95E2F79F
:100B3000817086BBFA01808380E0089583B390E0E2
:100B400002C0959587956A95E2F7817083BBFA019B
:100B5000808380E0089580B390E002C095958795EA
:100B60006A95E2F7817080BBFA01808380E0089586
:100B700081E00895813091F028F08230D9F08330FF
:100B800029F130C02BB381E090E002C0880F991F9B
:100B90006A95E2F782278BBB80E0089528B381E055
:100BA00090E002C0880F991F6A95E2F7822788BB00
:100BB00080E0089525B381E090E002C0880F991F7E
:100BC0006A95E2F7822785BB80E0089522B381E031
:100BD00090E002C0880F991F6A95E2F7822782BBD6
:100BE00080E0089581E0089583B78F7783BF83B74E
:100BF0008F7B83BF83B7877F83BF83B78F7E83BF9E
:100C000083B78F7D83BF80E0089583B7816083BF02
:100C100083B78D7F83BF83B7846083BF80E00895EF
:100C200083B78E7F83BF83B78D7F83BF83B78B7F6F
:100C300083BF80E008950E94F8062FE632E143E882
:100C400051E40E9457060E94C9066093EA0070931F
:100C5000EB008093EC009093ED0012BE0E9405061D
:100C600040E050E0BA010AC008B600FEFDCF88B7E8
:100C7000816088BF4F5F5F4F6F4F7F4F8091EA0069
:100C80009091EB00A091EC00B091ED00481759074E
:100C90006A077B0748F31092EA001092EB0010926B
:100CA000EC001092ED000E94100680E008950E9472
:100CB0006B060C944C070E94450758F00E943E07B3
:100CC00040F029F45F3F29F00C94350751110C9442
:100CD00080070C943B070E945D0768F39923B1F3EA
:100CE000552391F3951B550BBB27AA276217730752
:100CF000840738F09F5F5F4F220F331F441FAA1FE6
:100D0000A9F335D00E2E3AF0E0E832D091505040A1
:100D1000E695001CCAF72BD0FE2F29D0660F771F4F
:100D2000881FBB1F261737074807AB07B0E809F035
:100D3000BB0B802DBF01FF2793585F4F3AF09E3FBA
:100D4000510578F00C9435070C9480075F3FE4F36D
:100D5000983ED4F3869577956795B795F7959F5FFD
:100D6000C9F7880F911D9695879597F90895E1E049
:100D7000660F771F881FBB1F621773078407BA07A8
:100D800020F0621B730B840BBA0BEE1F88F7E09503
:100D900008950E94650788F09F5798F0B92F99270A
:100DA000B751B0F0E1F0660F771F881F991F1AF056
:100DB000BA95C9F714C0B13091F00E947F07B1E035
:100DC00008950C947F07672F782F8827B85F39F034
:100DD000B93FCCF3869577956795B395D9F73EF4EF
:100DE00090958095709561957F4F8F4F9F4F089597
:100DF000E89409C097FB3EF49095809570956195B5
:100E00007F4F8F4F9F4F9923A9F0F92F96E9BB276A
:100E10009395F695879577956795B795F111F8CFE6
:100E2000FAF4BB0F11F460FF1BC06F5F7F4F8F4F51
:100E30009F4F16C0882311F096E911C0772321F047
:100E40009EE8872F762F05C0662371F096E8862FDF
:100E500070E060E02AF09A95660F771F881FDAF736
:100E6000880F9695879597F9089597F99F6780E879
:100E700070E060E008959FEF80EC089500240A94EC
:100E80001616170618060906089500240A94121665
:100E90001306140605060895092E0394000C11F498
:100EA000882352F0BB0F40F4BF2B11F460FF04C045
:100EB0006F5F7F4F8F4F9F4F089557FD9058440F9E
:100EC000551F59F05F3F71F04795880F97FB991FA9
:100ED00061F09F3F79F08795089512161306140666
:100EE000551FF2CF4695F1DF08C0161617061806F3
:100EF000991FF1CF86957105610508940895E894CE
:100F0000BB2766277727CB0197F908950E94990799
:100F10000C944C070E943E0738F00E94450720F0D1
:100F2000952311F00C9435070C943B0711240C9475
:100F300080070E945D0770F3959FC1F3950F50E005
:100F4000551F629FF001729FBB27F00DB11D639F7B
:100F5000AA27F00DB11DAA1F649F6627B00DA11D21
:100F6000661F829F2227B00DA11D621F739FB00DC7
:100F7000A11D621F839FA00D611D221F749F332737
:100F8000A00D611D231F849F600D211D822F762FD0
:100F90006A2F11249F5750409AF0F1F088234AF0AD
:100FA000EE0FFF1FBB1F661F771F881F9150504019
:100FB000A9F79E3F510580F00C9435070C948007EB
:100FC0005F3FE4F3983ED4F3869577956795B795A0
:100FD000F795E7959F5FC1F7FE2B880F911D9695BA
:100FE000879597F90895052E97FB1EF400940E94AB
:100FF0000A0857FD07D00E94120807FC03D04EF4E0
:101000000C940A0850954095309521953F4F4F4FCD
:101010005F4F089590958095709561957F4F8F4FA4
:101020009F4F0895A1E21A2EAA1BBB1BFD010DC004
:10103000AA1FBB1FEE1FFF1FA217B307E407F50788
:1010400020F0A21BB30BE40BF50B661F771F881F64
:10105000991F1A9469F760957095809590959B01FA
:0C106000AC01BD01CF010895F894FFCF52
:10106C0014040E0E0E1F00040020202057656C6324
:10107C006F6D652020200044656661756C7420746A
:10108C00656D70203D3230005345542054454D5011
:10109C0045524154555245004D696E3A3138004D18
:1010AC0061783A3335004E65646465642054656D2F
:1010BC00703A0043757272656E742054656D7020C1
:1010CC003A00526561646A7573742074656D7000C2
:1010DC0053797374656D207265626F6F74200000B4
:00000001FF
