S018000061697220636F6E646974696F6E696E672E73726563AB
S11300000C942A000C9447000C9447000C9447006D
S11300100C9447000C9447000C9447000C94470040
S11300200C9447000C9447000C9447000C94470030
S11300300C9447000C9447000C9447000C94470020
S11300400C9447000C9447000C9447000C94470010
S11300500C94470011241FBECFE5D8E0DEBFCDBF0E
S113006010E0A0E6B0E0E4EDF4E002C005900D92EB
S1130070A836B107D9F720E0A8E6B0E001C01D9288
S1130080AC36B207E1F70E94B4000C9468020C94F9
S1130090000085BB8BB38B7F8BBB8BB38D7F8BBBFE
S11300A08BB381608BBB60E070E0CB010E94FD00EC
S11300B08BB38E7F8BBB60E070E0CB010E94FD00B0
S11300C080E008958AB384608ABB8AB382608ABB65
S11300D08AB381608ABB84B38FEF84BB64E170E030
S11300E080E090E00E94FD0088E30E9449008CE0DB
S11300F00E94490086E00E94490081E00E94490074
S113010080E80E94490080E0089585BB8BB3846039
S11301108BBB8BB38D7F8BBB8BB381608BBB60E060
S113012070E0CB010E94FD008BB38E7F8BBB60E03F
S113013070E0CB010E94FD0080E008950F931F93AF
S1130140CF93DF938C01C0E0D0E003C00E94850010
S11301502196F801EC0FFD1F80818111F7CFDF910B
S1130160CF911F910F910895CF93DF93CDB7DEB751
S113017027970FB6F894DEBF0FBECDBF87E0E0E649
S1130180F0E0DE01119601900D928A95E1F70E944C
S1130190D0000E946200CE0101960E949E00FFCF13
S11301A083B78F7783BF83B78F7B83BF83B7877F03
S11301B083BF83B78F7E83BF83B78F7D83BF8FB7A2
S11301C080688FBF89B7816089BF80E0089583B755
S11301D0816083BF83B78D7F83BF83B78B7F83BFEA
S11301E080E0089583B78E7F83BF83B78D7F83BFFD
S11301F083B78B7F83BF80E008950E94DA012FE6E6
S113020032E143E85EE30E9439010E94AB0160934E
S113021068007093690080936A0090936B0012BE2B
S11302200E94E70040E050E0BA010AC008B600FEB0
S1130230FDCF88B7816088BF4F5F5F4F6F4F7F4F9F
S11302408091680090916900A0916A00B0916B0060
S1130250481759076A077B0748F310926800109201
S1130260690010926A0010926B000E94F20080E014
S113027008950E944D010C942E020E94270258F00A
S11302800E94200240F029F45F3F29F00C941702E9
S113029051110C9462020C941D020E943F0268F3F7
S11302A09923B1F3552391F3951B550BBB27AA272B
S11302B062177307840738F09F5F5F4F220F331F65
S11302C0441FAA1FA9F335D00E2E3AF0E0E832D02D
S11302D091505040E695001CCAF72BD0FE2F29D030
S11302E0660F771F881FBB1F261737074807AB0702
S11302F0B0E809F0BB0B802DBF01FF2793585F4F77
S11303003AF09E3F510578F00C9417020C94620267
S11303105F3FE4F3983ED4F3869577956795B79558
S1130320F7959F5FC9F7880F911D9695879597F963
S11303300895E1E0660F771F881FBB1F62177307DC
S11303408407BA0720F0621B730B840BBA0BEE1FF1
S113035088F7E09508950E94470288F09F5798F027
S1130360B92F9927B751B0F0E1F0660F771F881FB6
S1130370991F1AF0BA95C9F714C0B13091F00E94D0
S11303806102B1E008950C946102672F782F8827E9
S1130390B85F39F0B93FCCF3869577956795B395F7
S11303A0D9F73EF490958095709561957F4F8F4F66
S11303B09F4F0895E89409C097FB3EF4909580956B
S11303C0709561957F4F8F4F9F4F9923A9F0F92F17
S11303D096E9BB279395F695879577956795B79595
S11303E0F111F8CFFAF4BB0F11F460FF1BC06F5F7B
S11303F07F4F8F4F9F4F16C0882311F096E911C08D
S1130400772321F09EE8872F762F05C0662371F0AD
S113041096E8862F70E060E02AF09A95660F771FC1
S1130420881FDAF7880F9695879597F9089597F9B5
S11304309F6780E870E060E008959FEF80EC089586
S113044000240A94161617061806090608950024AF
S11304500A9412161306140605060895092E039429
S1130460000C11F4882352F0BB0F40F4BF2B11F49D
S113047060FF04C06F5F7F4F8F4F9F4F089557FDFC
S11304809058440F551F59F05F3F71F04795880FFE
S113049097FB991F61F09F3F79F087950895121695
S11304A013061406551FF2CF4695F1DF08C0161641
S11304B017061806991FF1CF8695710561050894F2
S11304C00895E894BB2766277727CB0197F9089509
S10704D0F894FFCFCA
S10B04D448656C6C6F21000007
S9030000FC
