S018000061697220636F6E646974696F6E696E672E73726563AB
S11300000C942A000C9447000C9447000C9447006D
S11300100C9447000C9447000C9447000C94470040
S11300200C9447000C9447000C9447000C94470030
S11300300C9447000C9447000C9447000C94470020
S11300400C9447000C9447000C9447000C94470010
S11300500C94470011241FBECFE5D8E0DEBFCDBF0E
S113006010E0A0E6B0E0ECEEF4E002C005900D92E2
S1130070AC36B107D9F720E0ACE6B0E001C01D9280
S1130080AC36B207E1F70E9456010C9474020C944A
S113009000000E94A10081E00E94580061E081E01C
S11300A00E943E0180E690E00E942B01089508958D
S11300B0CF93C82F0E94590240E061E081E00E9482
S11300C0DA0140E062E081E00E94DA0140E063E0AE
S11300D081E00E94DA018BB39C2F907F8F70892B73
S11300E08BBB41E063E081E00E94DA0189EF90E09C
S11300F00197F1F700C0000040E063E081E00E9456
S1130100DA0120E1C29FC00111249BB39F70892BA7
S11301108BBB41E063E081E00E94DA0189EF90E06B
S11301200197F1F700C0000040E063E081E00E9425
S1130130DA0181EE94E00197F1F700C00000CF915D
S113014008950E94590241E061E081E00E945B0150
S113015041E062E081E00E945B0141E063E081E014
S11301600E945B0141E064E080E00E945B0141E0A9
S113017065E080E00E945B0141E066E080E00E946F
S11301805B0141E067E080E00E945B0187EA91E661
S11301900197F1F700C0000083E30E94580082E356
S11301A00E94580088E20E9458008CE00E94580087
S11301B086E00E94580082E00E94580081E00E947C
S11301C058000895CF93C82F0E94590241E061E07E
S11301D081E00E94DA0140E062E081E00E94DA01FD
S11301E040E063E081E00E94DA018BB39C2F907FB2
S11301F08F70892B8BBB41E063E081E00E94DA01C0
S113020089EF90E00197F1F700C0000040E063E05F
S113021081E00E94DA0120E1C29FC00111249BB356
S11302209F70892B8BBB41E063E081E00E94DA017F
S113023089EF90E00197F1F700C0000040E063E02F
S113024081E00E94DA0181EE94E00197F1F700C0A9
S11302500000CF9108950F931F93CF938C01C0E0BA
S113026003C00E94E200CF5FF801EC0FF11D808112
S11302708111F7CFCF911F910F910895CF93DF9301
S113028000D0CDB7DEB790E8998390EC9A83E1E093
S1130290F0E0EC0FFD1FE80FF11D8081860F0E9436
S11302A058000F900F90DF91CF9108950E9449005C
S11302B00E945700FDCF442319F04130E9F174C086
S11302C0813099F028F08230E9F0833041F16EC03A
S11302D02AB381E090E002C0880F991F6A95E2F783
S11302E0809582238ABB80E0089527B381E090E063
S11302F002C0880F991F6A95E2F78095822387BB15
S113030080E0089524B381E090E002C0880F991F33
S11303106A95E2F78095822384BB80E0089521B337
S113032081E090E002C0880F991F6A95E2F78095FA
S1130330822381BB80E00895813091F028F08230DF
S1130340D9F0833029F134C02AB381E090E002C0AF
S1130350880F991F6A95E2F7822B8ABB80E0089583
S113036027B381E090E002C0880F991F6A95E2F7F5
S1130370822B87BB80E0089524B381E090E002C023
S1130380880F991F6A95E2F7822B84BB80E0089559
S113039021B381E090E002C0880F991F6A95E2F7CB
S11303A0822B81BB80E0089581E0089581E0089567
S11303B081E00895442319F04130E9F174C081309B
S11303C099F028F08230E9F0833041F16EC02BB30C
S11303D081E090E002C0880F991F6A95E2F780954A
S11303E082238BBB80E0089528B381E090E002C0B3
S11303F0880F991F6A95E2F78095822388BB80E075
S1130400089525B381E090E002C0880F991F6A9592
S1130410E2F78095822385BB80E0089522B381E0D2
S113042090E002C0880F991F6A95E2F780958223B5
S113043082BB80E00895813091F028F08230D9F0B9
S1130440833029F134C02BB381E090E002C0880FDF
S1130450991F6A95E2F7822B8BBB80E0089528B33D
S113046081E090E002C0880F991F6A95E2F7822B21
S113047088BB80E0089525B381E090E002C0880F36
S1130480991F6A95E2F7822B85BB80E0089522B319
S113049081E090E002C0880F991F6A95E2F7822BF1
S11304A082BB80E0089581E0089581E0089581E0B1
S11304B008958FB58E7F8FBD8FB58D7F8FBD8EB51F
S11304C0877F8EBD8EB58F7E8EBD8FB584608FBDC8
S11304D08FB588608FBD8FB780688FBF89B79AB793
S10F04E084609ABF89BF0895F894FFCF90
S10F04EC416C6C616820416B626172001D
S9030000FC
