:100000000C942A000C9447000C9447000C94470071
:100010000C9447000C9447000C9447000C94470044
:100020000C9447000C9447000C9447000C94470034
:100030000C9447000C9447000C9447000C94470024
:100040000C9447000C9447000C9447000C94470014
:100050000C94470011241FBECFE5D8E0DEBFCDBF12
:1000600010E0A0E6B0E0E2EEF8E002C005900D92EC
:10007000A838B107D9F720E0A8E8B0E001C01D9288
:10008000AC38B207E1F70E94DA010C946F040C94CB
:1000900000000E94DD020E941F0164E170E080E028
:1000A00090E00E94040360E080E890E00E94BF01BD
:1000B00061E088E790E00E94BF0162E080E790E0A5
:1000C0000E94BF0163E088E690E00E94BF0164E007
:1000D00080E690E00E94BF01089568E080E00E9401
:1000E000A70180E00E9460016AE570E080E090E096
:1000F0000E94040368E080E00E94A70181E00E9462
:1001000060016AE570E080E090E00E94040368E02E
:1001100080E00E94A70182E00E9460016AE570E031
:1001200080E090E00E94040368E080E00E94A70164
:1001300081E00E9460016AE570E080E090E00E944A
:10014000040368E080E00E94A70180E00E94600153
:100150006AE570E080E090E00E94040368E080E0DF
:100160000E94A70183E00E9460016AE570E080E0E0
:1001700090E00E94040368E080E00E94A70184E010
:100180000E9460016AE570E080E090E00E94040354
:1001900068E080E00E94A70183E00E9460016AE5B8
:1001A00070E080E090E00E9404030895CF93C82F90
:1001B0000E94DD0240E061E081E00E945E0240E0DA
:1001C00062E081E00E945E0240E063E081E00E9424
:1001D0005E028BB39C2F907F8F70892B8BBB41E08D
:1001E00063E081E00E945E0261E070E080E090E008
:1001F0000E94040340E063E081E00E945E0220E18F
:10020000C29FC00111249BB39F70892B8BBB41E01F
:1002100063E081E00E945E0261E070E080E090E0D7
:100220000E94040340E063E081E00E945E0265E01A
:1002300070E080E090E00E940403CF9108950E9456
:10024000DD0241E061E081E00E94DF0141E062E027
:1002500081E00E94DF0141E063E081E00E94DF0174
:1002600041E064E080E00E94DF0141E065E080E081
:100270000E94DF0141E066E080E00E94DF0141E092
:1002800067E080E00E94DF0164E670E080E090E0DB
:100290000E94040383E30E94D60082E30E94D600FA
:1002A00088E20E94D6008CE00E94D60086E00E9480
:1002B000D60082E00E94D60081E00E94D600089518
:1002C000CF93C82F41E061E081E00E945E0240E0F0
:1002D00062E081E00E945E0240E063E081E00E9413
:1002E0005E028BB39C2F907F8F70892B8BBB41E07C
:1002F00063E081E00E945E0261E070E080E090E0F7
:100300000E94040340E063E081E00E945E0220E17D
:10031000C29FC00111249BB39F70892B8BBB41E00E
:1003200063E081E00E945E0261E070E080E090E0C6
:100330000E94040340E063E081E00E945E0265E009
:1003400070E080E090E00E940403CF910895CF9385
:10035000DF9300D0CDB7DEB790E8998390EC9A8315
:10036000E1E0F0E0EC0FFD1FE80FF11D8081860F4A
:100370000E94D6000F900F90DF91CF9108950F93B8
:100380001F93CF938C01862F90E00896880F880FDB
:10039000880F0E94D600C0E007C0F801EC0FF11DE5
:1003A00080810E946001CF5FC830B8F3CF911F9168
:1003B0000F9108950E9449000E946D00FDCF4423D3
:1003C00019F04130E9F174C0813099F028F08230A1
:1003D000E9F0833041F16EC02AB381E090E002C0C1
:1003E000880F991F6A95E2F7809582238ABB80E087
:1003F000089527B381E090E002C0880F991F6A95A5
:10040000E2F78095822387BB80E0089524B381E0E2
:1004100090E002C0880F991F6A95E2F780958223C9
:1004200084BB80E0089521B381E090E002C0880F92
:10043000991F6A95E2F78095822381BB80E0089539
:10044000813091F028F08230D9F0833029F134C026
:100450002AB381E090E002C0880F991F6A95E2F705
:10046000822B8ABB80E0089527B381E090E002C030
:10047000880F991F6A95E2F7822B87BB80E0089569
:1004800024B381E090E002C0880F991F6A95E2F7DB
:10049000822B84BB80E0089521B381E090E002C00C
:1004A000880F991F6A95E2F7822B81BB80E008953F
:1004B00081E0089581E0089581E00895442319F0D2
:1004C0004130E9F174C0813099F028F08230E9F0D0
:1004D000833041F16EC02BB381E090E002C0880F01
:1004E000991F6A95E2F7809582238BBB80E008957F
:1004F00028B381E090E002C0880F991F6A95E2F767
:100500008095822388BB80E0089525B381E090E048
:1005100002C0880F991F6A95E2F78095822385BBF8
:1005200080E0089522B381E090E002C0880F991F17
:100530006A95E2F78095822382BB80E0089581303E
:1005400091F028F08230D9F0833029F134C02BB3F8
:1005500081E090E002C0880F991F6A95E2F7822B34
:100560008BBB80E0089528B381E090E002C0880F43
:10057000991F6A95E2F7822B88BB80E0089525B326
:1005800081E090E002C0880F991F6A95E2F7822B04
:1005900085BB80E0089522B381E090E002C0880F1F
:1005A000991F6A95E2F7822B82BB80E0089581E073
:1005B000089581E0089581E0089583B78F7783BF20
:1005C00083B78F7B83BF83B7877F83BF83B78F7EDC
:1005D00083BF83B78F7D83BF80E0089583B7816039
:1005E00083BF83B78D7F83BF83B7846083BF80E081
:1005F000089583B78E7F83BF83B78D7F83BF83B713
:100600008B7F83BF80E008950E94E1032FE632E1F3
:1006100043E851E40E9440030E94B20360938800C3
:100620007093890080938A0090938B0012BE0E9481
:10063000EE0240E050E0BA010AC008B600FEFDCF6D
:1006400088B7816088BF4F5F5F4F6F4F7F4F80914A
:10065000880090918900A0918A00B0918B00481782
:1006600059076A077B0748F31092880010928900A7
:1006700010928A0010928B000E94F90280E0089587
:100680000E9454030C9435040E942E0458F00E94DA
:10069000270440F029F45F3F29F00C941E04511107
:1006A0000C9469040C9424040E94460468F3992372
:1006B000B1F3552391F3951B550BBB27AA2762175E
:1006C0007307840738F09F5F5F4F220F331F441F6B
:1006D000AA1FA9F335D00E2E3AF0E0E832D091509F
:1006E0005040E695001CCAF72BD0FE2F29D0660F8C
:1006F000771F881FBB1F261737074807AB07B0E8CF
:1007000009F0BB0B802DBF01FF2793585F4F3AF0D4
:100710009E3F510578F00C941E040C9469045F3FD1
:10072000E4F3983ED4F3869577956795B795F7955A
:100730009F5FC9F7880F911D9695879597F9089542
:10074000E1E0660F771F881FBB1F621773078407DE
:10075000BA0720F0621B730B840BBA0BEE1F88F7ED
:10076000E09508950E944E0488F09F5798F0B92FA5
:100770009927B751B0F0E1F0660F771F881F991FD6
:100780001AF0BA95C9F714C0B13091F00E9468040C
:10079000B1E008950C946804672F782F8827B85F1C
:1007A00039F0B93FCCF3869577956795B395D9F72E
:1007B0003EF490958095709561957F4F8F4F9F4F38
:1007C0000895E89409C097FB3EF490958095709544
:1007D00061957F4F8F4F9F4F9923A9F0F92F96E98D
:1007E000BB279395F695879577956795B795F11102
:1007F000F8CFFAF4BB0F11F460FF1BC06F5F7F4F9F
:100800008F4F9F4F16C0882311F096E911C07723B0
:1008100021F09EE8872F762F05C0662371F096E8B9
:10082000862F70E060E02AF09A95660F771F881F88
:10083000DAF7880F9695879597F9089597F99F6746
:1008400080E870E060E008959FEF80EC0895002458
:100850000A941616170618060906089500240A9425
:1008600012161306140605060895092E0394000CAB
:1008700011F4882352F0BB0F40F4BF2B11F460FF3A
:1008800004C06F5F7F4F8F4F9F4F089557FD905863
:10089000440F551F59F05F3F71F04795880F97FB44
:1008A000991F61F09F3F79F08795089512161306FE
:1008B0001406551FF2CF4695F1DF08C0161617062D
:1008C0001806991FF1CF8695710561050894089562
:1008D000E894BB2766277727CB0197F90895F8940A
:0208E000FFCF48
:1008E200040E0E0E1F100008040E0E0E1F0008004C
:1008F200040E0E0E1F010008040E0E0E1F00020051
:08090200040E0E0E1F0004009C
:00000001FF
