:100000000C942A000C9447000C9447000C94470071
:100010000C9447000C9447000C9447000C94470044
:100020000C9447000C9447000C9447000C94470034
:100030000C9447000C9447000C9447000C94470024
:100040000C9447000C9447000C9447000C94470014
:100050000C94470011241FBECFE5D8E0DEBFCDBF12
:1000600010E0A0E6B0E0EEE6F6E002C005900D92EA
:10007000A838B107D9F720E0A8E8B0E001C01D9288
:10008000AC38B207E1F70E94DD000C9435030C9404
:10009000000085BB8BB38B7F8BBB8BB38D7F8BBB02
:1000A0008BB381608BBB61E070E080E090E00E94E8
:1000B000D8018BB38E7F8BBB63E070E080E090E073
:1000C0000E94D80180E008958AB384608ABB8AB315
:1000D00082608ABB8AB381608ABB84B38FEF84BBA2
:1000E00064E170E080E090E00E949C0188E30E945F
:1000F00049008CE00E94490086E00E94490081E0AE
:100100000E94490080E80E94490080E0089585BB74
:100110008BB384608BBB8BB38D7F8BBB8BB38160C8
:100120008BBB61E070E080E090E00E94D8018BB36F
:100130008E7F8BBB63E070E080E090E00E94D8018E
:1001400080E00895CF93DF9300D0CDB7DEB790E87D
:10015000998390EC9A83E1E0F0E0EC0FFD1FE80F4B
:10016000F11D8081860F0E9449000F900F90DF9152
:10017000CF9108950F931F93CF938C01862F90E01A
:100180000896880F880F880F0E944900C0E007C0BA
:10019000F801EC0FF11D80810E948700CF5FC8300D
:1001A000B8F3CF911F910F9108950E94640080E0F1
:1001B00008950E94870080E008950E946F010E94C8
:1001C000D50064E670E080E090E00E949C0160E071
:1001D00080E890E00E94BA0061E088E790E00E9429
:1001E000BA0062E080E790E00E94BA0063E088E62F
:1001F00090E00E94BA0064E080E690E00E94BA00BD
:1002000064E670E080E090E00E949C0168E080E09D
:100210000E94A20080E00E94D90062E370E080E0CA
:1002200090E00E949C0168E080E00E94A20081E0D2
:100230000E94D90062E370E080E090E00E949C019F
:1002400068E080E00E94A20082E00E94D90062E3A0
:1002500070E080E090E00E949C0168E080E00E94F5
:10026000A20081E00E94D90062E370E080E090E0AB
:100270000E949C0168E080E00E94A20080E00E9451
:10028000D90062E370E080E090E00E949C0168E0A9
:1002900080E00E94A20083E00E94D90062E370E047
:1002A00080E090E00E949C0168E080E00E94A20053
:1002B00084E00E94D90062E370E080E090E00E9458
:1002C0009C0168E080E00E94A20083E00E94D900C7
:1002D00062E370E080E090E00E949C0197CF83B7DA
:1002E0008F7783BF83B78F7B83BF83B7877F83BFBE
:1002F00083B78F7E83BF83B78F7D83BF8FB78068BF
:100300008FBF89B7816089BF80E0089583B781601E
:1003100083BF83B78D7F83BF83B78B7F83BF80E02D
:10032000089583B78E7F83BF83B78D7F83BF83B7E5
:100330008B7F83BF80E008950E94A7022FE632E101
:1003400043E85CE30E9406020E9478026093880002
:100350007093890080938A0090938B0012BE0E9454
:10036000860140E050E0BA010AC008B600FEFDCFA9
:1003700088B7816088BF4F5F5F4F6F4F7F4F80911D
:10038000880090918900A0918A00B0918B00481755
:1003900059076A077B0748F310928800109289007A
:1003A00010928A0010928B000E94910180E00895C3
:1003B000BB27A92F982F872F8093880090938900BF
:1003C000A0938A00B0938B0012BE0E94860140E089
:1003D00050E0BA010AC008B600FEFDCF88B78160C0
:1003E00088BF4F5F5F4F6F4F7F4F80918800909124
:1003F0008900A0918A00B0918B00481759076A07BD
:100400007B0748F30E94910180E008950E941A0240
:100410000C94FB020E94F40258F00E94ED0240F09E
:1004200029F45F3F29F00C94E40251110C942F033E
:100430000C94EA020E940C0368F39923B1F355234C
:1004400091F3951B550BBB27AA27621773078407E7
:1004500038F09F5F5F4F220F331F441FAA1FA9F37D
:1004600035D00E2E3AF0E0E832D091505040E6956B
:10047000001CCAF72BD0FE2F29D0660F771F881FCC
:10048000BB1F261737074807AB07B0E809F0BB0BBF
:10049000802DBF01FF2793585F4F3AF09E3F5105D3
:1004A00078F00C94E4020C942F035F3FE4F3983E41
:1004B000D4F3869577956795B795F7959F5FC9F7BC
:1004C000880F911D9695879597F90895E1E0660F3D
:1004D000771F881FBB1F621773078407BA0720F0B6
:1004E000621B730B840BBA0BEE1F88F7E09508951F
:1004F0000E94140388F09F5798F0B92F9927B7519D
:10050000B0F0E1F0660F771F881F991F1AF0BA95B7
:10051000C9F714C0B13091F00E942E03B1E00895E4
:100520000C942E03672F782F8827B85F39F0B93FD6
:10053000CCF3869577956795B395D9F73EF490956A
:100540008095709561957F4F8F4F9F4F0895E894E8
:1005500009C097FB3EF490958095709561957F4F0B
:100560008F4F9F4F9923A9F0F92F96E9BB279395B9
:10057000F695879577956795B795F111F8CFFAF4C9
:10058000BB0F11F460FF1BC06F5F7F4F8F4F9F4FFA
:1005900016C0882311F096E911C0772321F09EE858
:1005A000872F762F05C0662371F096E8862F70E0BE
:1005B00060E02AF09A95660F771F881FDAF7880F98
:1005C0009695879597F9089597F99F6780E870E069
:1005D00060E008959FEF80EC089500240A941616B9
:1005E000170618060906089500240A941216130621
:1005F000140605060895092E0394000C11F48823AF
:1006000052F0BB0F40F4BF2B11F460FF04C06F5FCA
:100610007F4F8F4F9F4F089557FD9058440F551FA0
:1006200059F05F3F71F04795880F97FB991F61F074
:100630009F3F79F087950895121613061406551FEB
:10064000F2CF4695F1DF08C0161617061806991F57
:10065000F1CF86957105610508940895E894BB274C
:0E06600066277727CB0197F90895F894FFCF0E
:10066E00040E0E0E1F100008040E0E0E1F000800C2
:10067E00040E0E0E1F010008040E0E0E1F000200C7
:08068E00040E0E0E1F00040013
:00000001FF
