S018000061697220636F6E646974696F6E696E672E73726563AB
S11300000C942A000C94B2010C94D9010C940002B3
S11300100C9447000C94BE020C9447000C944700C7
S11300200C9447000C9447000C9447000C94470030
S11300300C9447000C9447000C9447000C94470020
S11300400C9447000C9447000C9447000C94470010
S11300500C94470011241FBECFE5D8E0DEBFCDBF0E
S113006010E0A0E6B0E0ECE2F8E002C005900D92EA
S1130070A838B107D9F720E0A8E8B0E001C01D9284
S1130080A439B207E1F70E9420010C9414040C94E3
S11300900000CF93C82F85B39C2F92959F70807FCB
S11300A0892B85BB8BB38B7F8BBB8BB38D7F8BBB3A
S11300B08BB381608BBB61E070E080E090E00E94D4
S11300C090028BB38E7F8BBB62E070E080E090E0A7
S11300D00E94900285B3807FCF70C82BC5BB8BB3C1
S11300E081608BBB61E070E080E090E00E94900250
S11300F08BB38E7F8BBB62E070E080E090E00E9467
S1130100540280E0CF9108958AB384608ABB8AB395
S113011082608ABB8AB381608ABB84B38F6084BBEC
S113012064E170E080E090E00E94540282E00E946A
S1130130490088E20E9449008CE00E94490086E060
S11301400E94490081E00E94490080E80E94490021
S113015080E00895CF93C82F85B39C2F92959F700C
S1130160807F892B85BB8BB384608BBB8BB38D7FE6
S11301708BBB8BB381608BBB61E070E080E090E06F
S11301800E9490028BB38E7F8BBB68EC70E080E0A2
S113019090E00E94900285B3807FCF70C82BC5BBCE
S11301A08BB381608BBB61E070E080E090E00E94E3
S11301B090028BB38E7F8BBB68EC70E080E090E0A4
S11301C00E94900280E0CF910895CF93DF9300D0F6
S11301D0CDB7DEB790E8998390EC9A83E1E0F0E044
S11301E0EC0FFD1FE80FF11D8081860F0E9449006E
S11301F00F900F90DF91CF9108950F931F93CF939A
S11302008C01862F90E00896880F880F880F0E9433
S11302104900C0E007C0F801EC0FF11D80810E9485
S1130220AA00CF5FC830B8F3CF911F910F91089502
S11302300E94840080E008950E94AA0080E008954E
S11302400E9427020E94180164E670E080E090E0BA
S11302500E94540260E080E890E00E94FD0061E0AA
S113026088E790E00E94FD0062E080E790E00E9451
S1130270FD0063E088E690E00E94FD0064E080E613
S113028090E00E94FD0064E670E080E090E00E944F
S1130290540268E080E00E94E50080E00E941C01B6
S11302A062E370E080E090E00E94540268E080E045
S11302B00E94E50081E00E941C0162E370E080E09E
S11302C090E00E94540268E080E00E94E50082E031
S11302D00E941C0162E370E080E090E00E945402FE
S11302E068E080E00E94E50081E00E941C0162E376
S11302F070E080E090E00E94540268E080E00E9498
S1130300E50080E00E941C0162E370E080E090E080
S11303100E94540268E080E00E94E50083E00E94AD
S11303201C0162E370E080E090E00E94540268E007
S113033080E00E94E50084E00E941C0162E370E01A
S113034080E090E00E94540268E080E00E94E500B2
S113035083E00E941C0162E370E080E090E00E9470
S1130360540297CF1F920F920FB60F9211242F931E
S11303703F934F935F936F937F938F939F93AF9329
S1130380BF93EF93FF93E0918C00F0918D0009955A
S1130390FF91EF91BF91AF919F918F917F916F9159
S11303A05F914F913F912F910F900FBE0F901F902F
S11303B018951F920F920FB60F9211242F933F930B
S11303C04F935F936F937F938F939F93AF93BF9359
S11303D0EF93FF93E0918A00F0918B000995FF91D0
S11303E0EF91BF91AF919F918F917F916F915F91A9
S11303F04F913F912F910F900FBE0F901F90189522
S11304001F920F920FB60F9211242F933F934F9385
S11304105F936F937F938F939F93AF93BF93EF9368
S1130420FF93E0918800F09189000995FF91EF9185
S1130430BF91AF919F918F917F916F915F914F91F8
S11304403F912F910F900FBE0F901F90189583B777
S11304508F7783BF83B78F7B83BF83B7877F83BF48
S113046083B78F7E83BF83B78F7D83BF8FB7806849
S11304708FBF89B7816089BF80E0089583B78160A9
S113048083BF83B78D7F83BF83B78B7F83BF80E0B8
S1130490089583B78E7F83BF83B78D7F83BF83B770
S11304A08B7F83BF80E008950E9486032FE632E1AC
S11304B043E85CE30E94E5020E94570360938E00C8
S11304C070938F00809390009093910012BE0E94CD
S11304D03E0240E050E0BA010AC008B600FEFDCF7B
S11304E088B7816088BF4F5F5F4F6F4F7F4F8091A8
S11304F08E0090918F00A0919000B09191004817C8
S113050059076A077B0748F310928E0010928F00F8
S113051010929000109291000E94490280E0089588
S1130520BB27A92F982F872F80938E0090938F003D
S1130530A0939000B093910012BE0E943E0240E04E
S113054050E0BA010AC008B600FEFDCF88B781604A
S113055088BF4F5F5F4F6F4F7F4F80918E009091A8
S11305608F00A0919000B0919100481759076A0735
S11305707B0748F30E94490280E008951F920F927E
S11305800FB60F9211242F933F934F935F936F9362
S11305907F938F939F93AF93BF93EF93FF93E091D8
S11305A09200F09193000995FF91EF91BF91AF9163
S11305B09F918F917F916F915F914F913F912F9177
S11305C00F900FBE0F901F9018950E94F9020C9483
S11305D0DA030E94D30358F00E94CC0340F029F4BC
S11305E05F3F29F00C94C30351110C940E040C9436
S11305F0C9030E94EB0368F39923B1F3552391F3E4
S1130600951B550BBB27AA2762177307840738F07D
S11306109F5F5F4F220F331F441FAA1FA9F335D0DA
S11306200E2E3AF0E0E832D091505040E695001C8E
S1130630CAF72BD0FE2F29D0660F771F881FBB1F48
S1130640261737074807AB07B0E809F0BB0B802D26
S1130650BF01FF2793585F4F3AF09E3F510578F052
S11306600C94C3030C940E045F3FE4F3983ED4F35C
S1130670869577956795B795F7959F5FC9F7880F26
S1130680911D9695879597F90895E1E0660F771F78
S1130690881FBB1F621773078407BA0720F0621B09
S11306A0730B840BBA0BEE1F88F7E09508950E9434
S11306B0F30388F09F5798F0B92F9927B751B0F0FA
S11306C0E1F0660F771F881F991F1AF0BA95C9F7D2
S11306D014C0B13091F00E940D04B1E008950C945F
S11306E00D04672F782F8827B85F39F0B93FCCF312
S11306F0869577956795B395D9F73EF4909580954F
S1130700709561957F4F8F4F9F4F0895E89409C06E
S113071097FB3EF490958095709561957F4F8F4F30
S11307209F4F9923A9F0F92F96E9BB279395F69546
S1130730879577956795B795F111F8CFFAF4BB0FC4
S113074011F460FF1BC06F5F7F4F8F4F9F4F16C028
S1130750882311F096E911C0772321F09EE8872FB2
S1130760762F05C0662371F096E8862F70E060E06E
S11307702AF09A95660F771F881FDAF7880F9695E7
S1130780879597F9089597F99F6780E870E060E08E
S113079008959FEF80EC089500240A941616170616
S11307A018060906089500240A941216130614065E
S11307B005060895092E0394000C11F4882352F0C1
S11307C0BB0F40F4BF2B11F460FF04C06F5F7F4F79
S11307D08F4F9F4F089557FD9058440F551F59F060
S11307E05F3F71F04795880F97FB991F61F09F3F1A
S11307F079F087950895121613061406551FF2CF43
S11308004695F1DF08C0161617061806991FF1CF92
S113081086957105610508940895E894BB276627B9
S10F08207727CB0197F90895F894FFCFD7
S113082C040E0E0E1F100008040E0E0E1F000800FE
S113083C040E0E0E1F010008040E0E0E1F00020003
S10B084C040E0E0E1F0004004F
S9030000FC
